{
  "contractName": "voting",
  "abi": [
    {
      "inputs": [],
      "stateMutability": "nonpayable",
      "type": "constructor"
    },
    {
      "anonymous": false,
      "inputs": [
        {
          "indexed": false,
          "internalType": "address",
          "name": "_owner",
          "type": "address"
        },
        {
          "indexed": false,
          "internalType": "uint256",
          "name": "_id",
          "type": "uint256"
        }
      ],
      "name": "closed",
      "type": "event"
    },
    {
      "anonymous": false,
      "inputs": [
        {
          "indexed": false,
          "internalType": "address",
          "name": "_owner",
          "type": "address"
        },
        {
          "indexed": false,
          "internalType": "uint256",
          "name": "_cost",
          "type": "uint256"
        },
        {
          "indexed": false,
          "internalType": "string",
          "name": "_title",
          "type": "string"
        }
      ],
      "name": "created",
      "type": "event"
    },
    {
      "anonymous": false,
      "inputs": [
        {
          "indexed": false,
          "internalType": "address",
          "name": "_owner",
          "type": "address"
        },
        {
          "indexed": false,
          "internalType": "bool",
          "name": "_status",
          "type": "bool"
        }
      ],
      "name": "deActivated",
      "type": "event"
    },
    {
      "anonymous": false,
      "inputs": [
        {
          "indexed": false,
          "internalType": "address",
          "name": "_owner",
          "type": "address"
        },
        {
          "indexed": false,
          "internalType": "enum voting.contractState",
          "name": "_state",
          "type": "uint8"
        }
      ],
      "name": "freezed",
      "type": "event"
    },
    {
      "anonymous": false,
      "inputs": [
        {
          "indexed": false,
          "internalType": "address",
          "name": "_owner",
          "type": "address"
        },
        {
          "indexed": false,
          "internalType": "uint256",
          "name": "_newSeason",
          "type": "uint256"
        }
      ],
      "name": "newSeason",
      "type": "event"
    },
    {
      "anonymous": false,
      "inputs": [
        {
          "indexed": false,
          "internalType": "address",
          "name": "_voter",
          "type": "address"
        },
        {
          "indexed": false,
          "internalType": "uint256",
          "name": "_id",
          "type": "uint256"
        },
        {
          "indexed": false,
          "internalType": "uint256",
          "name": "_cost",
          "type": "uint256"
        }
      ],
      "name": "voted",
      "type": "event"
    },
    {
      "inputs": [
        {
          "internalType": "uint256",
          "name": "",
          "type": "uint256"
        },
        {
          "internalType": "uint256",
          "name": "",
          "type": "uint256"
        }
      ],
      "name": "Projects",
      "outputs": [
        {
          "internalType": "uint256",
          "name": "id",
          "type": "uint256"
        },
        {
          "internalType": "address",
          "name": "owner",
          "type": "address"
        },
        {
          "internalType": "string",
          "name": "title",
          "type": "string"
        },
        {
          "internalType": "uint256",
          "name": "votes",
          "type": "uint256"
        },
        {
          "internalType": "enum voting.votingState",
          "name": "state",
          "type": "uint8"
        }
      ],
      "stateMutability": "view",
      "type": "function"
    },
    {
      "inputs": [],
      "name": "State",
      "outputs": [
        {
          "internalType": "enum voting.contractState",
          "name": "",
          "type": "uint8"
        }
      ],
      "stateMutability": "view",
      "type": "function"
    },
    {
      "inputs": [],
      "name": "minimumAmount",
      "outputs": [
        {
          "internalType": "uint256",
          "name": "",
          "type": "uint256"
        }
      ],
      "stateMutability": "view",
      "type": "function"
    },
    {
      "inputs": [
        {
          "internalType": "uint256",
          "name": "",
          "type": "uint256"
        }
      ],
      "name": "projectsArray",
      "outputs": [
        {
          "internalType": "uint256",
          "name": "id",
          "type": "uint256"
        },
        {
          "internalType": "address",
          "name": "owner",
          "type": "address"
        },
        {
          "internalType": "string",
          "name": "title",
          "type": "string"
        },
        {
          "internalType": "uint256",
          "name": "votes",
          "type": "uint256"
        },
        {
          "internalType": "enum voting.votingState",
          "name": "state",
          "type": "uint8"
        }
      ],
      "stateMutability": "view",
      "type": "function"
    },
    {
      "inputs": [],
      "name": "season",
      "outputs": [
        {
          "internalType": "uint256",
          "name": "",
          "type": "uint256"
        }
      ],
      "stateMutability": "view",
      "type": "function"
    },
    {
      "inputs": [],
      "name": "seasonStarting",
      "outputs": [
        {
          "internalType": "uint256",
          "name": "",
          "type": "uint256"
        }
      ],
      "stateMutability": "view",
      "type": "function"
    },
    {
      "inputs": [],
      "name": "totalAmountCollected",
      "outputs": [
        {
          "internalType": "uint256",
          "name": "",
          "type": "uint256"
        }
      ],
      "stateMutability": "view",
      "type": "function"
    },
    {
      "inputs": [],
      "name": "totalProjects",
      "outputs": [
        {
          "internalType": "uint256",
          "name": "",
          "type": "uint256"
        }
      ],
      "stateMutability": "view",
      "type": "function"
    },
    {
      "inputs": [],
      "name": "uid",
      "outputs": [
        {
          "internalType": "uint256",
          "name": "",
          "type": "uint256"
        }
      ],
      "stateMutability": "view",
      "type": "function"
    },
    {
      "inputs": [],
      "name": "freeze",
      "outputs": [
        {
          "internalType": "bool",
          "name": "",
          "type": "bool"
        }
      ],
      "stateMutability": "nonpayable",
      "type": "function"
    },
    {
      "inputs": [
        {
          "internalType": "string",
          "name": "_title",
          "type": "string"
        }
      ],
      "name": "createVoting",
      "outputs": [
        {
          "internalType": "bool",
          "name": "",
          "type": "bool"
        }
      ],
      "stateMutability": "payable",
      "type": "function"
    },
    {
      "inputs": [
        {
          "internalType": "uint256",
          "name": "_id",
          "type": "uint256"
        }
      ],
      "name": "vote",
      "outputs": [
        {
          "internalType": "bool",
          "name": "",
          "type": "bool"
        }
      ],
      "stateMutability": "payable",
      "type": "function"
    },
    {
      "inputs": [
        {
          "internalType": "uint256",
          "name": "_id",
          "type": "uint256"
        }
      ],
      "name": "closeVoting",
      "outputs": [
        {
          "internalType": "bool",
          "name": "",
          "type": "bool"
        }
      ],
      "stateMutability": "nonpayable",
      "type": "function"
    },
    {
      "inputs": [],
      "name": "closeSeason",
      "outputs": [
        {
          "internalType": "bool",
          "name": "",
          "type": "bool"
        }
      ],
      "stateMutability": "nonpayable",
      "type": "function"
    }
  ],
  "bytecode": "0x60a060405234801561001057600080fd5b50600080819055503373ffffffffffffffffffffffffffffffffffffffff1660808173ffffffffffffffffffffffffffffffffffffffff1681525050600060028190555067016345785d8a00006001819055506001600660006101000a81548160ff02191690836001811115610089576100886100aa565b5b021790555060006003819055506001600581905550426004819055506100d9565b7f4e487b7100000000000000000000000000000000000000000000000000000000600052602160045260246000fd5b60805161181b6100f460003960006104e4015261181b6000f3fe6080604052600436106100dd5760003560e01c8063bb0c82981161007f578063c50b0fb011610059578063c50b0fb0146102c6578063d2111a72146102f1578063f1b6dccd1461032e578063f514ce3614610359576100dd565b8063bb0c829814610245578063bbc6739514610270578063c236bb221461029b576100dd565b806364b785fa116100bb57806364b785fa14610168578063677c3f9c146101a95780639c361e4e146101d9578063a1a823e314610204576100dd565b80630121b93f146100e25780634cf8eb3a1461011257806362a5af3b1461013d575b600080fd5b6100fc60048036038101906100f79190611020565b610384565b6040516101099190611068565b60405180910390f35b34801561011e57600080fd5b506101276104da565b6040516101349190611092565b60405180910390f35b34801561014957600080fd5b506101526104e0565b60405161015f9190611068565b60405180910390f35b34801561017457600080fd5b5061018f600480360381019061018a9190611020565b610682565b6040516101a09594939291906111fe565b60405180910390f35b6101c360048036038101906101be919061138d565b61077d565b6040516101d09190611068565b60405180910390f35b3480156101e557600080fd5b506101ee610a3d565b6040516101fb9190611092565b60405180910390f35b34801561021057600080fd5b5061022b600480360381019061022691906113d6565b610a43565b60405161023c9594939291906111fe565b60405180910390f35b34801561025157600080fd5b5061025a610b3b565b6040516102679190611092565b60405180910390f35b34801561027c57600080fd5b50610285610b41565b6040516102929190611068565b60405180910390f35b3480156102a757600080fd5b506102b0610c0e565b6040516102bd9190611092565b60405180910390f35b3480156102d257600080fd5b506102db610c14565b6040516102e89190611092565b60405180910390f35b3480156102fd57600080fd5b5061031860048036038101906103139190611020565b610c1a565b6040516103259190611068565b60405180910390f35b34801561033a57600080fd5b50610343610db7565b604051610350919061145e565b60405180910390f35b34801561036557600080fd5b5061036e610dca565b60405161037b9190611092565b60405180910390f35b6000600154341461039457600080fd5b81600060018111156103a9576103a8611187565b5b600860006005548152602001908152602001600020600083815260200190815260200160002060040160009054906101000a900460ff1660018111156103f2576103f1611187565b5b146103fc57600080fd5b60016008600060055481526020019081526020016000206000858152602001908152602001600020600301600082825461043691906114a8565b92505081905550600160078481548110610453576104526114fe565b5b9060005260206000209060050201600301600082825461047391906114a8565b92505081905550346003600082825461048c91906114a8565b925050819055507fb091fe3ff5bcc354914ab49469d6febeeec7ad0134e4f94bb8c834da0c391c9f33846001546040516104c89392919061152d565b60405180910390a16001915050919050565b60045481565b60007f000000000000000000000000000000000000000000000000000000000000000073ffffffffffffffffffffffffffffffffffffffff163373ffffffffffffffffffffffffffffffffffffffff1614610570576040517f08c379a0000000000000000000000000000000000000000000000000000000008152600401610567906115d6565b60405180910390fd5b60018081111561058357610582611187565b5b600660009054906101000a900460ff1660018111156105a5576105a4611187565b5b1415610615576000600660006101000a81548160ff021916908360018111156105d1576105d0611187565b5b02179055507f750fec88bd86edf3495137b570ee84c4b357a9b763e2baf9ab7d78592b04b0363360006040516106089291906115f6565b60405180910390a161067b565b6001600660006101000a81548160ff0219169083600181111561063b5761063a611187565b5b02179055507f750fec88bd86edf3495137b570ee84c4b357a9b763e2baf9ab7d78592b04b0363360016040516106729291906115f6565b60405180910390a15b6001905090565b6007818154811061069257600080fd5b90600052602060002090600502016000915090508060000154908060010160009054906101000a900473ffffffffffffffffffffffffffffffffffffffff16908060020180546106e19061164e565b80601f016020809104026020016040519081016040528092919081815260200182805461070d9061164e565b801561075a5780601f1061072f5761010080835404028352916020019161075a565b820191906000526020600020905b81548152906001019060200180831161073d57829003601f168201915b5050505050908060030154908060040160009054906101000a900460ff16905085565b6000600154341461078d57600080fd5b6040518060a0016040528060005481526020013373ffffffffffffffffffffffffffffffffffffffff16815260200183815260200160008152602001600060018111156107dd576107dc611187565b5b8152506008600060055481526020019081526020016000206000805481526020019081526020016000206000820151816000015560208201518160010160006101000a81548173ffffffffffffffffffffffffffffffffffffffff021916908373ffffffffffffffffffffffffffffffffffffffff1602179055506040820151816002019080519060200190610874929190610dd0565b506060820151816003015560808201518160040160006101000a81548160ff021916908360018111156108aa576108a9611187565b5b021790555090505060076008600060055481526020019081526020016000206000805481526020019081526020016000209080600181540180825580915050600190039060005260206000209060050201600090919091909150600082015481600001556001820160009054906101000a900473ffffffffffffffffffffffffffffffffffffffff168160010160006101000a81548173ffffffffffffffffffffffffffffffffffffffff021916908373ffffffffffffffffffffffffffffffffffffffff16021790555060028201816002019080546109899061164e565b610994929190610e56565b50600382015481600301556004820160009054906101000a900460ff168160040160006101000a81548160ff021916908360018111156109d7576109d6611187565b5b0217905550505034600360008282546109f091906114a8565b925050819055507fcc2eeec0f1fef90b653d576e2e6056cc9731de76c3ceb632711459d63d9a85783360015484604051610a2c93929190611680565b60405180910390a160019050919050565b60025481565b6008602052816000526040600020602052806000526040600020600091509150508060000154908060010160009054906101000a900473ffffffffffffffffffffffffffffffffffffffff1690806002018054610a9f9061164e565b80601f0160208091040260200160405190810160405280929190818152602001828054610acb9061164e565b8015610b185780601f10610aed57610100808354040283529160200191610b18565b820191906000526020600020905b815481529060010190602001808311610afb57829003601f168201915b5050505050908060030154908060040160009054906101000a900460ff16905085565b60015481565b60004262282170600454610b5591906114a8565b1115610b96576040517f08c379a0000000000000000000000000000000000000000000000000000000008152600401610b8d9061170a565b60405180910390fd5b600160056000828254610ba991906114a8565b925050819055506000808190555060076000610bc59190610ee3565b426004819055507f3aa5c6be5f60e1422374b4a3213167cdb86863e34a77b2854414f0afe1cd00ad33600554604051610bff92919061172a565b60405180910390a16001905090565b60035481565b60055481565b600081600860006005548152602001908152602001600020600082815260200190815260200160002060010160009054906101000a900473ffffffffffffffffffffffffffffffffffffffff1673ffffffffffffffffffffffffffffffffffffffff163373ffffffffffffffffffffffffffffffffffffffff1614610cd4576040517f08c379a0000000000000000000000000000000000000000000000000000000008152600401610ccb906117c5565b60405180910390fd5b6001600860006005548152602001908152602001600020600085815260200190815260200160002060040160006101000a81548160ff02191690836001811115610d2157610d20611187565b5b0217905550600160078481548110610d3c57610d3b6114fe565b5b906000526020600020906005020160040160006101000a81548160ff02191690836001811115610d6f57610d6e611187565b5b02179055507f971d09da916c42ec867a7d1116160cedbc9de230858945891894ca2387f4c3c33384604051610da592919061172a565b60405180910390a16001915050919050565b600660009054906101000a900460ff1681565b60005481565b828054610ddc9061164e565b90600052602060002090601f016020900481019282610dfe5760008555610e45565b82601f10610e1757805160ff1916838001178555610e45565b82800160010185558215610e45579182015b82811115610e44578251825591602001919060010190610e29565b5b509050610e529190610f07565b5090565b828054610e629061164e565b90600052602060002090601f016020900481019282610e845760008555610ed2565b82601f10610e955780548555610ed2565b82800160010185558215610ed257600052602060002091601f016020900482015b82811115610ed1578254825591600101919060010190610eb6565b5b509050610edf9190610f07565b5090565b5080546000825560050290600052602060002090810190610f049190610f24565b50565b5b80821115610f20576000816000905550600101610f08565b5090565b5b80821115610f92576000808201600090556001820160006101000a81549073ffffffffffffffffffffffffffffffffffffffff0219169055600282016000610f6d9190610f96565b60038201600090556004820160006101000a81549060ff021916905550600501610f25565b5090565b508054610fa29061164e565b6000825580601f10610fb45750610fd3565b601f016020900490600052602060002090810190610fd29190610f07565b5b50565b6000604051905090565b600080fd5b600080fd5b6000819050919050565b610ffd81610fea565b811461100857600080fd5b50565b60008135905061101a81610ff4565b92915050565b60006020828403121561103657611035610fe0565b5b60006110448482850161100b565b91505092915050565b60008115159050919050565b6110628161104d565b82525050565b600060208201905061107d6000830184611059565b92915050565b61108c81610fea565b82525050565b60006020820190506110a76000830184611083565b92915050565b600073ffffffffffffffffffffffffffffffffffffffff82169050919050565b60006110d8826110ad565b9050919050565b6110e8816110cd565b82525050565b600081519050919050565b600082825260208201905092915050565b60005b8381101561112857808201518184015260208101905061110d565b83811115611137576000848401525b50505050565b6000601f19601f8301169050919050565b6000611159826110ee565b61116381856110f9565b935061117381856020860161110a565b61117c8161113d565b840191505092915050565b7f4e487b7100000000000000000000000000000000000000000000000000000000600052602160045260246000fd5b600281106111c7576111c6611187565b5b50565b60008190506111d8826111b6565b919050565b60006111e8826111ca565b9050919050565b6111f8816111dd565b82525050565b600060a0820190506112136000830188611083565b61122060208301876110df565b8181036040830152611232818661114e565b90506112416060830185611083565b61124e60808301846111ef565b9695505050505050565b600080fd5b600080fd5b7f4e487b7100000000000000000000000000000000000000000000000000000000600052604160045260246000fd5b61129a8261113d565b810181811067ffffffffffffffff821117156112b9576112b8611262565b5b80604052505050565b60006112cc610fd6565b90506112d88282611291565b919050565b600067ffffffffffffffff8211156112f8576112f7611262565b5b6113018261113d565b9050602081019050919050565b82818337600083830152505050565b600061133061132b846112dd565b6112c2565b90508281526020810184848401111561134c5761134b61125d565b5b61135784828561130e565b509392505050565b600082601f83011261137457611373611258565b5b813561138484826020860161131d565b91505092915050565b6000602082840312156113a3576113a2610fe0565b5b600082013567ffffffffffffffff8111156113c1576113c0610fe5565b5b6113cd8482850161135f565b91505092915050565b600080604083850312156113ed576113ec610fe0565b5b60006113fb8582860161100b565b925050602061140c8582860161100b565b9150509250929050565b6002811061142757611426611187565b5b50565b600081905061143882611416565b919050565b60006114488261142a565b9050919050565b6114588161143d565b82525050565b6000602082019050611473600083018461144f565b92915050565b7f4e487b7100000000000000000000000000000000000000000000000000000000600052601160045260246000fd5b60006114b382610fea565b91506114be83610fea565b9250827fffffffffffffffffffffffffffffffffffffffffffffffffffffffffffffffff038211156114f3576114f2611479565b5b828201905092915050565b7f4e487b7100000000000000000000000000000000000000000000000000000000600052603260045260246000fd5b600060608201905061154260008301866110df565b61154f6020830185611083565b61155c6040830184611083565b949350505050565b7f4f6e6c79206f776e6572732063616e2063616c6c20746869732066756e63746960008201527f6f6e000000000000000000000000000000000000000000000000000000000000602082015250565b60006115c06022836110f9565b91506115cb82611564565b604082019050919050565b600060208201905081810360008301526115ef816115b3565b9050919050565b600060408201905061160b60008301856110df565b611618602083018461144f565b9392505050565b7f4e487b7100000000000000000000000000000000000000000000000000000000600052602260045260246000fd5b6000600282049050600182168061166657607f821691505b6020821081141561167a5761167961161f565b5b50919050565b600060608201905061169560008301866110df565b6116a26020830185611083565b81810360408301526116b4818461114e565b9050949350505050565b7f5374696c6c206c65667400000000000000000000000000000000000000000000600082015250565b60006116f4600a836110f9565b91506116ff826116be565b602082019050919050565b60006020820190508181036000830152611723816116e7565b9050919050565b600060408201905061173f60008301856110df565b61174c6020830184611083565b9392505050565b7f4f6e6c7920766f74696e67206f776e65722063616e2063616c6c20746869732060008201527f66756e6374696f6e000000000000000000000000000000000000000000000000602082015250565b60006117af6028836110f9565b91506117ba82611753565b604082019050919050565b600060208201905081810360008301526117de816117a2565b905091905056fea2646970667358221220d22c09f8f8710db18fd6e1f96c4e54f063b9da11462e018582de4a07623b51f564736f6c634300080a0033",
  "immutableReferences": {
    "36": [
      {
        "length": 32,
        "start": 1252
      }
    ]
  },
  "source": "// SPDX-License-Identifier: MIT\npragma solidity >=0.4.22 <0.9.0;\n\ncontract voting {\n\n\n  address immutable owner;\n\n  uint public uid;\n  uint public minimumAmount;\n  uint public totalProjects;\n  uint public totalAmountCollected;\n  uint public seasonStarting;\n  uint public season;\n\n\n\n  enum contractState {\n    freeze,\n    running\n  }\n\n  enum votingState {\n    active,\n    closed\n  }\n\n\n  contractState public State;\n\n\n\n  constructor () {\n    uid = 0;\n    owner = msg.sender;\n    totalProjects = 0;\n    minimumAmount = 1000000000000000000 / 10;\n    State = contractState.running;\n    totalAmountCollected = 0;\n    season = 1;\n    seasonStarting = block.timestamp;\n  }\n\n\n\n  struct project {\n    uint id;\n    address owner;\n    string title;\n    uint votes;\n    votingState state;\n  }\n\n\n  project[] public projectsArray;\n\n\n  mapping (uint => mapping (uint => project)) public Projects;\n\n\n\n  event created (address _owner, uint _cost, string _title);\n  event deActivated (address _owner, bool _status);\n  event voted (address _voter, uint _id, uint _cost);\n  event freezed (address _owner, contractState _state);\n  event newSeason (address _owner, uint _newSeason);\n  event closed(address _owner, uint _id);\n\n\n\n  modifier onlyOwner {\n    require(msg.sender == owner, \"Only owners can call this function\");\n    _;\n  }\n\n  modifier minimumValue {\n    require(msg.value == minimumAmount);\n    _;\n  }\n\n  modifier onlyVotingOwner (uint _id) {\n    require(msg.sender == Projects[season][_id].owner, \"Only voting owner can call this function\");\n    _;\n  }\n\n  modifier isActive (uint _id) {\n    require(Projects[season][_id].state == votingState.active);\n    _;\n  }\n\n\n\n  function freeze () public onlyOwner returns (bool) {\n    if (State == contractState.running) {\n      State = contractState.freeze;\n      emit freezed(msg.sender, contractState.freeze);\n    }else {\n      State = contractState.running;\n      emit freezed(msg.sender, contractState.running);\n    }\n    return true;\n  }\n\n  function createVoting (string memory _title) public payable minimumValue returns (bool) {\n    Projects[season][uid] = project({\n      id : uid,\n      owner : msg.sender,\n      title : _title,\n      votes : 0,\n      state : votingState.active\n    });\n    projectsArray.push(Projects[season][uid]);\n    totalAmountCollected += msg.value;\n    emit created(msg.sender, minimumAmount, _title);\n    return true;\n  }\n\n  function vote (uint _id) public payable minimumValue isActive (_id) returns (bool) {\n    Projects[season][_id].votes += 1;\n    projectsArray[_id].votes += 1;\n    totalAmountCollected += msg.value;\n    emit voted(msg.sender, _id, minimumAmount);\n    return true;\n  }\n\n  function closeVoting (uint _id) public onlyVotingOwner (_id) returns (bool) {\n    Projects[season][_id].state = votingState.closed;\n    projectsArray[_id].state = votingState.closed;\n    emit closed(msg.sender, _id);\n    return true;\n  }\n\n    function closeSeason () public returns (bool) {\n    require(seasonStarting + 2630000 <= block.timestamp, \"Still left\");\n    season += 1;\n    uid = 0;\n    delete projectsArray;\n    seasonStarting = block.timestamp;\n    emit newSeason(msg.sender, season);\n    return true;\n    } \n}",
  "sourcePath": "C:\\Users\\aaz\\Desktop\\Projects\\Voting\\contracts\\voting.sol",
  "compiler": {
    "name": "solc",
    "version": "0.8.10+commit.fc410830.Emscripten.clang"
  },
  "schemaVersion": "3.4.3",
  "updatedAt": "2022-09-04T12:01:47.178Z",
  "devdoc": {
    "kind": "dev",
    "methods": {},
    "version": 1
  },
  "userdoc": {
    "kind": "user",
    "methods": {},
    "version": 1
  }
}